{
	"data": {
		"bytecode": {
			"linkReferences": {},
			"object": "608060405234801561001057600080fd5b50611d42806100206000396000f3fe6080604052600436106100915760003560e01c8063b55587a911610059578063b55587a914610183578063d133adb1146101ac578063d72a0a53146101c8578063e8d8c29b146101f1578063eb84e7f21461020d57610091565b80635385c9141461009657806378a3113e146100bf5780638f1c087c146100fe5780639fda5b6614610127578063aeaf7cc714610167575b600080fd5b3480156100a257600080fd5b506100bd60048036038101906100b891906115a4565b61024d565b005b3480156100cb57600080fd5b506100e660048036038101906100e191906115a4565b61047f565b6040516100f5939291906115ea565b60405180910390f35b34801561010a57600080fd5b50610125600480360381019061012091906115a4565b6104a9565b005b34801561013357600080fd5b5061014e600480360381019061014991906115a4565b6106db565b60405161015e9493929190611621565b60405180910390f35b610181600480360381019061017c91906115a4565b61070b565b005b34801561018f57600080fd5b506101aa60048036038101906101a591906115a4565b6108d3565b005b6101c660048036038101906101c19190611766565b610b05565b005b3480156101d457600080fd5b506101ef60048036038101906101ea9190611830565b610fda565b005b61020b600480360381019061020691906115a4565b6112c4565b005b34801561021957600080fd5b50610234600480360381019061022f91906115a4565b611414565b604051610244949392919061189d565b60405180910390f35b8060008082815260200190815260200160002060000160009054906101000a900473ffffffffffffffffffffffffffffffffffffffff1673ffffffffffffffffffffffffffffffffffffffff163373ffffffffffffffffffffffffffffffffffffffff16146102bb57600080fd5b600160008281526020019081526020016000206002015442116102dd57600080fd5b600160008281526020019081526020016000206000015460016000838152602001908152602001600020600101541061031557600080fd5b60008083815260200190815260200160002060000160009054906101000a900473ffffffffffffffffffffffffffffffffffffffff1673ffffffffffffffffffffffffffffffffffffffff166108fc60016000858152602001908152602001600020600101549081150290604051600060405180830381858888f193505050501580156103a6573d6000803e3d6000fd5b50600060016000848152602001908152602001600020600101819055507f35bf93d41681ae8339a4a8c79b8f9a70f8591536c61cc1f080baa9b210d4b30e3360016000858152602001908152602001600020600101543360008087815260200190815260200160002060000160009054906101000a900473ffffffffffffffffffffffffffffffffffffffff166002600088815260200190815260200160002060010154600160008981526020019081526020016000206001015460405161047396959493929190611941565b60405180910390a15050565b60026020528060005260406000206000915090508060000154908060010154908060020154905083565b8060008082815260200190815260200160002060010160009054906101000a900473ffffffffffffffffffffffffffffffffffffffff1673ffffffffffffffffffffffffffffffffffffffff163373ffffffffffffffffffffffffffffffffffffffff161461051757600080fd5b6002600082815260200190815260200160002060020154421161053957600080fd5b600260008281526020019081526020016000206000015460026000838152602001908152602001600020600101541061057157600080fd5b60008083815260200190815260200160002060010160009054906101000a900473ffffffffffffffffffffffffffffffffffffffff1673ffffffffffffffffffffffffffffffffffffffff166108fc60026000858152602001908152602001600020600101549081150290604051600060405180830381858888f19350505050158015610602573d6000803e3d6000fd5b50600060026000848152602001908152602001600020600101819055507fe262b15c13829fba44f68e772d8a56b07bdbe837457c17ac646a0a895f6213a43360026000858152602001908152602001600020600101543360008087815260200190815260200160002060010160009054906101000a900473ffffffffffffffffffffffffffffffffffffffff16600260008881526020019081526020016000206001015460016000898152602001908152602001600020600101546040516106cf96959493929190611941565b60405180910390a15050565b60016020528060005260406000206000915090508060000154908060010154908060020154908060030154905084565b8060008082815260200190815260200160002060010160009054906101000a900473ffffffffffffffffffffffffffffffffffffffff1673ffffffffffffffffffffffffffffffffffffffff163373ffffffffffffffffffffffffffffffffffffffff161461077957600080fd5b600060026000838152602001908152602001600020600101541461079c57600080fd5b600260008281526020019081526020016000206000015434146107be57600080fd5b600260008281526020019081526020016000206002015442106107e057600080fd5b3460026000848152602001908152602001600020600101600082825461080691906119d1565b925050819055506108626040518060400160405280601481526020017f63757272656e74207072656d69756d732069733a00000000000000000000000081525060026000858152602001908152602001600020600101546114a4565b7fb4e524d3a0691cb1ece34c51c744887e59f3fe2784648c09cb036109f69e23eb33343330600260008881526020019081526020016000206001015460016000898152602001908152602001600020600101546040516108c796959493929190611a05565b60405180910390a15050565b8060008082815260200190815260200160002060010160009054906101000a900473ffffffffffffffffffffffffffffffffffffffff1673ffffffffffffffffffffffffffffffffffffffff163373ffffffffffffffffffffffffffffffffffffffff161461094157600080fd5b6001600082815260200190815260200160002060020154421161096357600080fd5b600160008281526020019081526020016000206000015460016000838152602001908152602001600020600101541461099b57600080fd5b60008083815260200190815260200160002060010160009054906101000a900473ffffffffffffffffffffffffffffffffffffffff1673ffffffffffffffffffffffffffffffffffffffff166108fc60026000858152602001908152602001600020600101549081150290604051600060405180830381858888f19350505050158015610a2c573d6000803e3d6000fd5b50600060026000848152602001908152602001600020600101819055507f66b1503c3ecf228b3c665c611abcd216a5cbdbcc890636e1294cec4ca84c8c283360026000858152602001908152602001600020600101543360008087815260200190815260200160002060010160009054906101000a900473ffffffffffffffffffffffffffffffffffffffff1660026000888152602001908152602001600020600101546001600089815260200190815260200160002060010154604051610af996959493929190611941565b60405180910390a15050565b83600073ffffffffffffffffffffffffffffffffffffffff1660008083815260200190815260200160002060000160009054906101000a900473ffffffffffffffffffffffffffffffffffffffff1673ffffffffffffffffffffffffffffffffffffffff1614610b7457600080fd5b600073ffffffffffffffffffffffffffffffffffffffff1660008083815260200190815260200160002060010160009054906101000a900473ffffffffffffffffffffffffffffffffffffffff1673ffffffffffffffffffffffffffffffffffffffff1614610be257600080fd5b6000801b6000808381526020019081526020016000206002015414610c0657600080fd5b600073ffffffffffffffffffffffffffffffffffffffff1660008083815260200190815260200160002060030160009054906101000a900473ffffffffffffffffffffffffffffffffffffffff1673ffffffffffffffffffffffffffffffffffffffff1614610c7457600080fd5b60405180608001604052808973ffffffffffffffffffffffffffffffffffffffff1681526020018873ffffffffffffffffffffffffffffffffffffffff1681526020018681526020018773ffffffffffffffffffffffffffffffffffffffff1681525060008087815260200190815260200160002060008201518160000160006101000a81548173ffffffffffffffffffffffffffffffffffffffff021916908373ffffffffffffffffffffffffffffffffffffffff16021790555060208201518160010160006101000a81548173ffffffffffffffffffffffffffffffffffffffff021916908373ffffffffffffffffffffffffffffffffffffffff1602179055506040820151816002015560608201518160030160006101000a81548173ffffffffffffffffffffffffffffffffffffffff021916908373ffffffffffffffffffffffffffffffffffffffff16021790555090505060405180608001604052808b8152602001600081526020018386610def91906119d1565b8152602001836002610e019190611a66565b86610e0c91906119d1565b815250600160008781526020019081526020016000206000820151816000015560208201518160010155604082015181600201556060820151816003015590505060405180606001604052808a8152602001600081526020018386610e7191906119d1565b815250600260008781526020019081526020016000206000820151816000015560208201518160010155604082015181600201559050506001151583151503610f43577fc79aeb2fe76f332a1d6d3f45f05258ca3b85a3ee38f40e55421212e72ea99e8c88888b8d88876002610ee79190611a66565b8a610ef291906119d1565b886003610eff9190611a66565b8b610f0a91906119d1565b896006610f179190611a66565b8c610f2291906119d1565b604051610f36989796959493929190611aa8565b60405180910390a1610fce565b7fc79aeb2fe76f332a1d6d3f45f05258ca3b85a3ee38f40e55421212e72ea99e8c88888b8d88876001610f769190611a66565b8a610f8191906119d1565b886004610f8e9190611a66565b8b610f9991906119d1565b896005610fa69190611a66565b8c610fb191906119d1565b604051610fc5989796959493929190611aa8565b60405180910390a15b50505050505050505050565b818160008082815260200190815260200160002060000160009054906101000a900473ffffffffffffffffffffffffffffffffffffffff1673ffffffffffffffffffffffffffffffffffffffff163373ffffffffffffffffffffffffffffffffffffffff161461104957600080fd5b8060028360405160200161105d9190611b26565b6040516020818303038152906040526040516110799190611bb2565b602060405180830381855afa158015611096573d6000803e3d6000fd5b5050506040513d601f19601f820116820180604052508101906110b99190611bde565b146110c357600080fd5b600160008281526020019081526020016000206002015442106110e557600080fd5b600080600085815260200190815260200160002060030160009054906101000a900473ffffffffffffffffffffffffffffffffffffffff1690508073ffffffffffffffffffffffffffffffffffffffff1663a9059cbb60008087815260200190815260200160002060000160009054906101000a900473ffffffffffffffffffffffffffffffffffffffff1660016000888152602001908152602001600020600101546040518363ffffffff1660e01b81526004016111a5929190611c0b565b6020604051808303816000875af11580156111c4573d6000803e3d6000fd5b505050506040513d601f19601f820116820180604052508101906111e89190611c49565b50600060016000868152602001908152602001600020600101819055507f3484574bab0531880c22e3c11bd9b4827f810e6bbb68433d67ec59f1c3b336f63360016000878152602001908152602001600020600101543360008089815260200190815260200160002060000160009054906101000a900473ffffffffffffffffffffffffffffffffffffffff16600260008a815260200190815260200160002060010154600160008b8152602001908152602001600020600101546040516112b596959493929190611941565b60405180910390a15050505050565b8060008082815260200190815260200160002060000160009054906101000a900473ffffffffffffffffffffffffffffffffffffffff1673ffffffffffffffffffffffffffffffffffffffff163373ffffffffffffffffffffffffffffffffffffffff161461133257600080fd5b6001600082815260200190815260200160002060000154341461135457600080fd5b6001600082815260200190815260200160002060020154421061137657600080fd5b3460016000848152602001908152602001600020600101600082825461139c91906119d1565b925050819055507f1f0d9d92d563a9e40c820d68cf6bb63bd117be35c9d16d896f70d7a9537d2230333433306002600088815260200190815260200160002060010154600160008981526020019081526020016000206001015460405161140896959493929190611a05565b60405180910390a15050565b60006020528060005260406000206000915090508060000160009054906101000a900473ffffffffffffffffffffffffffffffffffffffff16908060010160009054906101000a900473ffffffffffffffffffffffffffffffffffffffff16908060020154908060030160009054906101000a900473ffffffffffffffffffffffffffffffffffffffff16905084565b61153c82826040516024016114ba929190611cdc565b6040516020818303038152906040527fb60e72cc000000000000000000000000000000000000000000000000000000007bffffffffffffffffffffffffffffffffffffffffffffffffffffffff19166020820180517bffffffffffffffffffffffffffffffffffffffffffffffffffffffff8381831617835250505050611540565b5050565b60008151905060006a636f6e736f6c652e6c6f679050602083016000808483855afa5050505050565b600080fd5b6000819050919050565b6115818161156e565b811461158c57600080fd5b50565b60008135905061159e81611578565b92915050565b6000602082840312156115ba576115b9611569565b5b60006115c88482850161158f565b91505092915050565b6000819050919050565b6115e4816115d1565b82525050565b60006060820190506115ff60008301866115db565b61160c60208301856115db565b61161960408301846115db565b949350505050565b600060808201905061163660008301876115db565b61164360208301866115db565b61165060408301856115db565b61165d60608301846115db565b95945050505050565b61166f816115d1565b811461167a57600080fd5b50565b60008135905061168c81611666565b92915050565b600073ffffffffffffffffffffffffffffffffffffffff82169050919050565b60006116bd82611692565b9050919050565b6116cd816116b2565b81146116d857600080fd5b50565b6000813590506116ea816116c4565b92915050565b60006116fb82611692565b9050919050565b61170b816116f0565b811461171657600080fd5b50565b60008135905061172881611702565b92915050565b60008115159050919050565b6117438161172e565b811461174e57600080fd5b50565b6000813590506117608161173a565b92915050565b60008060008060008060008060006101208a8c03121561178957611788611569565b5b60006117978c828d0161167d565b99505060206117a88c828d0161167d565b98505060406117b98c828d016116db565b97505060606117ca8c828d016116db565b96505060806117db8c828d01611719565b95505060a06117ec8c828d0161158f565b94505060c06117fd8c828d0161167d565b93505060e061180e8c828d01611751565b9250506101006118208c828d0161167d565b9150509295985092959850929598565b6000806040838503121561184757611846611569565b5b60006118558582860161158f565b92505060206118668582860161158f565b9150509250929050565b611879816116b2565b82525050565b6118888161156e565b82525050565b611897816116f0565b82525050565b60006080820190506118b26000830187611870565b6118bf6020830186611870565b6118cc604083018561187f565b6118d9606083018461188e565b95945050505050565b6000819050919050565b60006119076119026118fd84611692565b6118e2565b611692565b9050919050565b6000611919826118ec565b9050919050565b600061192b8261190e565b9050919050565b61193b81611920565b82525050565b600060c082019050611956600083018961188e565b61196360208301886115db565b611970604083018761188e565b61197d6060830186611932565b61198a60808301856115db565b61199760a08301846115db565b979650505050505050565b7f4e487b7100000000000000000000000000000000000000000000000000000000600052601160045260246000fd5b60006119dc826115d1565b91506119e7836115d1565b92508282019050808211156119ff576119fe6119a2565b5b92915050565b600060c082019050611a1a600083018961188e565b611a2760208301886115db565b611a34604083018761188e565b611a41606083018661188e565b611a4e60808301856115db565b611a5b60a08301846115db565b979650505050505050565b6000611a71826115d1565b9150611a7c836115d1565b9250828202611a8a816115d1565b91508282048414831517611aa157611aa06119a2565b5b5092915050565b600061010082019050611abe600083018b611870565b611acb602083018a611870565b611ad860408301896115db565b611ae560608301886115db565b611af260808301876115db565b611aff60a08301866115db565b611b0c60c08301856115db565b611b1960e08301846115db565b9998505050505050505050565b6000602082019050611b3b600083018461187f565b92915050565b600081519050919050565b600081905092915050565b60005b83811015611b75578082015181840152602081019050611b5a565b60008484015250505050565b6000611b8c82611b41565b611b968185611b4c565b9350611ba6818560208601611b57565b80840191505092915050565b6000611bbe8284611b81565b915081905092915050565b600081519050611bd881611578565b92915050565b600060208284031215611bf457611bf3611569565b5b6000611c0284828501611bc9565b91505092915050565b6000604082019050611c206000830185611932565b611c2d60208301846115db565b9392505050565b600081519050611c438161173a565b92915050565b600060208284031215611c5f57611c5e611569565b5b6000611c6d84828501611c34565b91505092915050565b600081519050919050565b600082825260208201905092915050565b6000601f19601f8301169050919050565b6000611cae82611c76565b611cb88185611c81565b9350611cc8818560208601611b57565b611cd181611c92565b840191505092915050565b60006040820190508181036000830152611cf68185611ca3565b9050611d0560208301846115db565b939250505056fea264697066735822122001e4e88103f0c1442d845745ec35a98eddaeb35205b17d4c6a66f8769d40a79c64736f6c63430008120033",
			"opcodes": "PUSH1 0x80 PUSH1 0x40 MSTORE CALLVALUE DUP1 ISZERO PUSH2 0x10 JUMPI PUSH1 0x0 DUP1 REVERT JUMPDEST POP PUSH2 0x1D42 DUP1 PUSH2 0x20 PUSH1 0x0 CODECOPY PUSH1 0x0 RETURN INVALID PUSH1 0x80 PUSH1 0x40 MSTORE PUSH1 0x4 CALLDATASIZE LT PUSH2 0x91 JUMPI PUSH1 0x0 CALLDATALOAD PUSH1 0xE0 SHR DUP1 PUSH4 0xB55587A9 GT PUSH2 0x59 JUMPI DUP1 PUSH4 0xB55587A9 EQ PUSH2 0x183 JUMPI DUP1 PUSH4 0xD133ADB1 EQ PUSH2 0x1AC JUMPI DUP1 PUSH4 0xD72A0A53 EQ PUSH2 0x1C8 JUMPI DUP1 PUSH4 0xE8D8C29B EQ PUSH2 0x1F1 JUMPI DUP1 PUSH4 0xEB84E7F2 EQ PUSH2 0x20D JUMPI PUSH2 0x91 JUMP JUMPDEST DUP1 PUSH4 0x5385C914 EQ PUSH2 0x96 JUMPI DUP1 PUSH4 0x78A3113E EQ PUSH2 0xBF JUMPI DUP1 PUSH4 0x8F1C087C EQ PUSH2 0xFE JUMPI DUP1 PUSH4 0x9FDA5B66 EQ PUSH2 0x127 JUMPI DUP1 PUSH4 0xAEAF7CC7 EQ PUSH2 0x167 JUMPI JUMPDEST PUSH1 0x0 DUP1 REVERT JUMPDEST CALLVALUE DUP1 ISZERO PUSH2 0xA2 JUMPI PUSH1 0x0 DUP1 REVERT JUMPDEST POP PUSH2 0xBD PUSH1 0x4 DUP1 CALLDATASIZE SUB DUP2 ADD SWAP1 PUSH2 0xB8 SWAP2 SWAP1 PUSH2 0x15A4 JUMP JUMPDEST PUSH2 0x24D JUMP JUMPDEST STOP JUMPDEST CALLVALUE DUP1 ISZERO PUSH2 0xCB JUMPI PUSH1 0x0 DUP1 REVERT JUMPDEST POP PUSH2 0xE6 PUSH1 0x4 DUP1 CALLDATASIZE SUB DUP2 ADD SWAP1 PUSH2 0xE1 SWAP2 SWAP1 PUSH2 0x15A4 JUMP JUMPDEST PUSH2 0x47F JUMP JUMPDEST PUSH1 0x40 MLOAD PUSH2 0xF5 SWAP4 SWAP3 SWAP2 SWAP1 PUSH2 0x15EA JUMP JUMPDEST PUSH1 0x40 MLOAD DUP1 SWAP2 SUB SWAP1 RETURN JUMPDEST CALLVALUE DUP1 ISZERO PUSH2 0x10A JUMPI PUSH1 0x0 DUP1 REVERT JUMPDEST POP PUSH2 0x125 PUSH1 0x4 DUP1 CALLDATASIZE SUB DUP2 ADD SWAP1 PUSH2 0x120 SWAP2 SWAP1 PUSH2 0x15A4 JUMP JUMPDEST PUSH2 0x4A9 JUMP JUMPDEST STOP JUMPDEST CALLVALUE DUP1 ISZERO PUSH2 0x133 JUMPI PUSH1 0x0 DUP1 REVERT JUMPDEST POP PUSH2 0x14E PUSH1 0x4 DUP1 CALLDATASIZE SUB DUP2 ADD SWAP1 PUSH2 0x149 SWAP2 SWAP1 PUSH2 0x15A4 JUMP JUMPDEST PUSH2 0x6DB JUMP JUMPDEST PUSH1 0x40 MLOAD PUSH2 0x15E SWAP5 SWAP4 SWAP3 SWAP2 SWAP1 PUSH2 0x1621 JUMP JUMPDEST PUSH1 0x40 MLOAD DUP1 SWAP2 SUB SWAP1 RETURN JUMPDEST PUSH2 0x181 PUSH1 0x4 DUP1 CALLDATASIZE SUB DUP2 ADD SWAP1 PUSH2 0x17C SWAP2 SWAP1 PUSH2 0x15A4 JUMP JUMPDEST PUSH2 0x70B JUMP JUMPDEST STOP JUMPDEST CALLVALUE DUP1 ISZERO PUSH2 0x18F JUMPI PUSH1 0x0 DUP1 REVERT JUMPDEST POP PUSH2 0x1AA PUSH1 0x4 DUP1 CALLDATASIZE SUB DUP2 ADD SWAP1 PUSH2 0x1A5 SWAP2 SWAP1 PUSH2 0x15A4 JUMP JUMPDEST PUSH2 0x8D3 JUMP JUMPDEST STOP JUMPDEST PUSH2 0x1C6 PUSH1 0x4 DUP1 CALLDATASIZE SUB DUP2 ADD SWAP1 PUSH2 0x1C1 SWAP2 SWAP1 PUSH2 0x1766 JUMP JUMPDEST PUSH2 0xB05 JUMP JUMPDEST STOP JUMPDEST CALLVALUE DUP1 ISZERO PUSH2 0x1D4 JUMPI PUSH1 0x0 DUP1 REVERT JUMPDEST POP PUSH2 0x1EF PUSH1 0x4 DUP1 CALLDATASIZE SUB DUP2 ADD SWAP1 PUSH2 0x1EA SWAP2 SWAP1 PUSH2 0x1830 JUMP JUMPDEST PUSH2 0xFDA JUMP JUMPDEST STOP JUMPDEST PUSH2 0x20B PUSH1 0x4 DUP1 CALLDATASIZE SUB DUP2 ADD SWAP1 PUSH2 0x206 SWAP2 SWAP1 PUSH2 0x15A4 JUMP JUMPDEST PUSH2 0x12C4 JUMP JUMPDEST STOP JUMPDEST CALLVALUE DUP1 ISZERO PUSH2 0x219 JUMPI PUSH1 0x0 DUP1 REVERT JUMPDEST POP PUSH2 0x234 PUSH1 0x4 DUP1 CALLDATASIZE SUB DUP2 ADD SWAP1 PUSH2 0x22F SWAP2 SWAP1 PUSH2 0x15A4 JUMP JUMPDEST PUSH2 0x1414 JUMP JUMPDEST PUSH1 0x40 MLOAD PUSH2 0x244 SWAP5 SWAP4 SWAP3 SWAP2 SWAP1 PUSH2 0x189D JUMP JUMPDEST PUSH1 0x40 MLOAD DUP1 SWAP2 SUB SWAP1 RETURN JUMPDEST DUP1 PUSH1 0x0 DUP1 DUP3 DUP2 MSTORE PUSH1 0x20 ADD SWAP1 DUP2 MSTORE PUSH1 0x20 ADD PUSH1 0x0 KECCAK256 PUSH1 0x0 ADD PUSH1 0x0 SWAP1 SLOAD SWAP1 PUSH2 0x100 EXP SWAP1 DIV PUSH20 0xFFFFFFFFFFFFFFFFFFFFFFFFFFFFFFFFFFFFFFFF AND PUSH20 0xFFFFFFFFFFFFFFFFFFFFFFFFFFFFFFFFFFFFFFFF AND CALLER PUSH20 0xFFFFFFFFFFFFFFFFFFFFFFFFFFFFFFFFFFFFFFFF AND EQ PUSH2 0x2BB JUMPI PUSH1 0x0 DUP1 REVERT JUMPDEST PUSH1 0x1 PUSH1 0x0 DUP3 DUP2 MSTORE PUSH1 0x20 ADD SWAP1 DUP2 MSTORE PUSH1 0x20 ADD PUSH1 0x0 KECCAK256 PUSH1 0x2 ADD SLOAD TIMESTAMP GT PUSH2 0x2DD JUMPI PUSH1 0x0 DUP1 REVERT JUMPDEST PUSH1 0x1 PUSH1 0x0 DUP3 DUP2 MSTORE PUSH1 0x20 ADD SWAP1 DUP2 MSTORE PUSH1 0x20 ADD PUSH1 0x0 KECCAK256 PUSH1 0x0 ADD SLOAD PUSH1 0x1 PUSH1 0x0 DUP4 DUP2 MSTORE PUSH1 0x20 ADD SWAP1 DUP2 MSTORE PUSH1 0x20 ADD PUSH1 0x0 KECCAK256 PUSH1 0x1 ADD SLOAD LT PUSH2 0x315 JUMPI PUSH1 0x0 DUP1 REVERT JUMPDEST PUSH1 0x0 DUP1 DUP4 DUP2 MSTORE PUSH1 0x20 ADD SWAP1 DUP2 MSTORE PUSH1 0x20 ADD PUSH1 0x0 KECCAK256 PUSH1 0x0 ADD PUSH1 0x0 SWAP1 SLOAD SWAP1 PUSH2 0x100 EXP SWAP1 DIV PUSH20 0xFFFFFFFFFFFFFFFFFFFFFFFFFFFFFFFFFFFFFFFF AND PUSH20 0xFFFFFFFFFFFFFFFFFFFFFFFFFFFFFFFFFFFFFFFF AND PUSH2 0x8FC PUSH1 0x1 PUSH1 0x0 DUP6 DUP2 MSTORE PUSH1 0x20 ADD SWAP1 DUP2 MSTORE PUSH1 0x20 ADD PUSH1 0x0 KECCAK256 PUSH1 0x1 ADD SLOAD SWAP1 DUP2 ISZERO MUL SWAP1 PUSH1 0x40 MLOAD PUSH1 0x0 PUSH1 0x40 MLOAD DUP1 DUP4 SUB DUP2 DUP6 DUP9 DUP9 CALL SWAP4 POP POP POP POP ISZERO DUP1 ISZERO PUSH2 0x3A6 JUMPI RETURNDATASIZE PUSH1 0x0 DUP1 RETURNDATACOPY RETURNDATASIZE PUSH1 0x0 REVERT JUMPDEST POP PUSH1 0x0 PUSH1 0x1 PUSH1 0x0 DUP5 DUP2 MSTORE PUSH1 0x20 ADD SWAP1 DUP2 MSTORE PUSH1 0x20 ADD PUSH1 0x0 KECCAK256 PUSH1 0x1 ADD DUP2 SWAP1 SSTORE POP PUSH32 0x35BF93D41681AE8339A4A8C79B8F9A70F8591536C61CC1F080BAA9B210D4B30E CALLER PUSH1 0x1 PUSH1 0x0 DUP6 DUP2 MSTORE PUSH1 0x20 ADD SWAP1 DUP2 MSTORE PUSH1 0x20 ADD PUSH1 0x0 KECCAK256 PUSH1 0x1 ADD SLOAD CALLER PUSH1 0x0 DUP1 DUP8 DUP2 MSTORE PUSH1 0x20 ADD SWAP1 DUP2 MSTORE PUSH1 0x20 ADD PUSH1 0x0 KECCAK256 PUSH1 0x0 ADD PUSH1 0x0 SWAP1 SLOAD SWAP1 PUSH2 0x100 EXP SWAP1 DIV PUSH20 0xFFFFFFFFFFFFFFFFFFFFFFFFFFFFFFFFFFFFFFFF AND PUSH1 0x2 PUSH1 0x0 DUP9 DUP2 MSTORE PUSH1 0x20 ADD SWAP1 DUP2 MSTORE PUSH1 0x20 ADD PUSH1 0x0 KECCAK256 PUSH1 0x1 ADD SLOAD PUSH1 0x1 PUSH1 0x0 DUP10 DUP2 MSTORE PUSH1 0x20 ADD SWAP1 DUP2 MSTORE PUSH1 0x20 ADD PUSH1 0x0 KECCAK256 PUSH1 0x1 ADD SLOAD PUSH1 0x40 MLOAD PUSH2 0x473 SWAP7 SWAP6 SWAP5 SWAP4 SWAP3 SWAP2 SWAP1 PUSH2 0x1941 JUMP JUMPDEST PUSH1 0x40 MLOAD DUP1 SWAP2 SUB SWAP1 LOG1 POP POP JUMP JUMPDEST PUSH1 0x2 PUSH1 0x20 MSTORE DUP1 PUSH1 0x0 MSTORE PUSH1 0x40 PUSH1 0x0 KECCAK256 PUSH1 0x0 SWAP2 POP SWAP1 POP DUP1 PUSH1 0x0 ADD SLOAD SWAP1 DUP1 PUSH1 0x1 ADD SLOAD SWAP1 DUP1 PUSH1 0x2 ADD SLOAD SWAP1 POP DUP4 JUMP JUMPDEST DUP1 PUSH1 0x0 DUP1 DUP3 DUP2 MSTORE PUSH1 0x20 ADD SWAP1 DUP2 MSTORE PUSH1 0x20 ADD PUSH1 0x0 KECCAK256 PUSH1 0x1 ADD PUSH1 0x0 SWAP1 SLOAD SWAP1 PUSH2 0x100 EXP SWAP1 DIV PUSH20 0xFFFFFFFFFFFFFFFFFFFFFFFFFFFFFFFFFFFFFFFF AND PUSH20 0xFFFFFFFFFFFFFFFFFFFFFFFFFFFFFFFFFFFFFFFF AND CALLER PUSH20 0xFFFFFFFFFFFFFFFFFFFFFFFFFFFFFFFFFFFFFFFF AND EQ PUSH2 0x517 JUMPI PUSH1 0x0 DUP1 REVERT JUMPDEST PUSH1 0x2 PUSH1 0x0 DUP3 DUP2 MSTORE PUSH1 0x20 ADD SWAP1 DUP2 MSTORE PUSH1 0x20 ADD PUSH1 0x0 KECCAK256 PUSH1 0x2 ADD SLOAD TIMESTAMP GT PUSH2 0x539 JUMPI PUSH1 0x0 DUP1 REVERT JUMPDEST PUSH1 0x2 PUSH1 0x0 DUP3 DUP2 MSTORE PUSH1 0x20 ADD SWAP1 DUP2 MSTORE PUSH1 0x20 ADD PUSH1 0x0 KECCAK256 PUSH1 0x0 ADD SLOAD PUSH1 0x2 PUSH1 0x0 DUP4 DUP2 MSTORE PUSH1 0x20 ADD SWAP1 DUP2 MSTORE PUSH1 0x20 ADD PUSH1 0x0 KECCAK256 PUSH1 0x1 ADD SLOAD LT PUSH2 0x571 JUMPI PUSH1 0x0 DUP1 REVERT JUMPDEST PUSH1 0x0 DUP1 DUP4 DUP2 MSTORE PUSH1 0x20 ADD SWAP1 DUP2 MSTORE PUSH1 0x20 ADD PUSH1 0x0 KECCAK256 PUSH1 0x1 ADD PUSH1 0x0 SWAP1 SLOAD SWAP1 PUSH2 0x100 EXP SWAP1 DIV PUSH20 0xFFFFFFFFFFFFFFFFFFFFFFFFFFFFFFFFFFFFFFFF AND PUSH20 0xFFFFFFFFFFFFFFFFFFFFFFFFFFFFFFFFFFFFFFFF AND PUSH2 0x8FC PUSH1 0x2 PUSH1 0x0 DUP6 DUP2 MSTORE PUSH1 0x20 ADD SWAP1 DUP2 MSTORE PUSH1 0x20 ADD PUSH1 0x0 KECCAK256 PUSH1 0x1 ADD SLOAD SWAP1 DUP2 ISZERO MUL SWAP1 PUSH1 0x40 MLOAD PUSH1 0x0 PUSH1 0x40 MLOAD DUP1 DUP4 SUB DUP2 DUP6 DUP9 DUP9 CALL SWAP4 POP POP POP POP ISZERO DUP1 ISZERO PUSH2 0x602 JUMPI RETURNDATASIZE PUSH1 0x0 DUP1 RETURNDATACOPY RETURNDATASIZE PUSH1 0x0 REVERT JUMPDEST POP PUSH1 0x0 PUSH1 0x2 PUSH1 0x0 DUP5 DUP2 MSTORE PUSH1 0x20 ADD SWAP1 DUP2 MSTORE PUSH1 0x20 ADD PUSH1 0x0 KECCAK256 PUSH1 0x1 ADD DUP2 SWAP1 SSTORE POP PUSH32 0xE262B15C13829FBA44F68E772D8A56B07BDBE837457C17AC646A0A895F6213A4 CALLER PUSH1 0x2 PUSH1 0x0 DUP6 DUP2 MSTORE PUSH1 0x20 ADD SWAP1 DUP2 MSTORE PUSH1 0x20 ADD PUSH1 0x0 KECCAK256 PUSH1 0x1 ADD SLOAD CALLER PUSH1 0x0 DUP1 DUP8 DUP2 MSTORE PUSH1 0x20 ADD SWAP1 DUP2 MSTORE PUSH1 0x20 ADD PUSH1 0x0 KECCAK256 PUSH1 0x1 ADD PUSH1 0x0 SWAP1 SLOAD SWAP1 PUSH2 0x100 EXP SWAP1 DIV PUSH20 0xFFFFFFFFFFFFFFFFFFFFFFFFFFFFFFFFFFFFFFFF AND PUSH1 0x2 PUSH1 0x0 DUP9 DUP2 MSTORE PUSH1 0x20 ADD SWAP1 DUP2 MSTORE PUSH1 0x20 ADD PUSH1 0x0 KECCAK256 PUSH1 0x1 ADD SLOAD PUSH1 0x1 PUSH1 0x0 DUP10 DUP2 MSTORE PUSH1 0x20 ADD SWAP1 DUP2 MSTORE PUSH1 0x20 ADD PUSH1 0x0 KECCAK256 PUSH1 0x1 ADD SLOAD PUSH1 0x40 MLOAD PUSH2 0x6CF SWAP7 SWAP6 SWAP5 SWAP4 SWAP3 SWAP2 SWAP1 PUSH2 0x1941 JUMP JUMPDEST PUSH1 0x40 MLOAD DUP1 SWAP2 SUB SWAP1 LOG1 POP POP JUMP JUMPDEST PUSH1 0x1 PUSH1 0x20 MSTORE DUP1 PUSH1 0x0 MSTORE PUSH1 0x40 PUSH1 0x0 KECCAK256 PUSH1 0x0 SWAP2 POP SWAP1 POP DUP1 PUSH1 0x0 ADD SLOAD SWAP1 DUP1 PUSH1 0x1 ADD SLOAD SWAP1 DUP1 PUSH1 0x2 ADD SLOAD SWAP1 DUP1 PUSH1 0x3 ADD SLOAD SWAP1 POP DUP5 JUMP JUMPDEST DUP1 PUSH1 0x0 DUP1 DUP3 DUP2 MSTORE PUSH1 0x20 ADD SWAP1 DUP2 MSTORE PUSH1 0x20 ADD PUSH1 0x0 KECCAK256 PUSH1 0x1 ADD PUSH1 0x0 SWAP1 SLOAD SWAP1 PUSH2 0x100 EXP SWAP1 DIV PUSH20 0xFFFFFFFFFFFFFFFFFFFFFFFFFFFFFFFFFFFFFFFF AND PUSH20 0xFFFFFFFFFFFFFFFFFFFFFFFFFFFFFFFFFFFFFFFF AND CALLER PUSH20 0xFFFFFFFFFFFFFFFFFFFFFFFFFFFFFFFFFFFFFFFF AND EQ PUSH2 0x779 JUMPI PUSH1 0x0 DUP1 REVERT JUMPDEST PUSH1 0x0 PUSH1 0x2 PUSH1 0x0 DUP4 DUP2 MSTORE PUSH1 0x20 ADD SWAP1 DUP2 MSTORE PUSH1 0x20 ADD PUSH1 0x0 KECCAK256 PUSH1 0x1 ADD SLOAD EQ PUSH2 0x79C JUMPI PUSH1 0x0 DUP1 REVERT JUMPDEST PUSH1 0x2 PUSH1 0x0 DUP3 DUP2 MSTORE PUSH1 0x20 ADD SWAP1 DUP2 MSTORE PUSH1 0x20 ADD PUSH1 0x0 KECCAK256 PUSH1 0x0 ADD SLOAD CALLVALUE EQ PUSH2 0x7BE JUMPI PUSH1 0x0 DUP1 REVERT JUMPDEST PUSH1 0x2 PUSH1 0x0 DUP3 DUP2 MSTORE PUSH1 0x20 ADD SWAP1 DUP2 MSTORE PUSH1 0x20 ADD PUSH1 0x0 KECCAK256 PUSH1 0x2 ADD SLOAD TIMESTAMP LT PUSH2 0x7E0 JUMPI PUSH1 0x0 DUP1 REVERT JUMPDEST CALLVALUE PUSH1 0x2 PUSH1 0x0 DUP5 DUP2 MSTORE PUSH1 0x20 ADD SWAP1 DUP2 MSTORE PUSH1 0x20 ADD PUSH1 0x0 KECCAK256 PUSH1 0x1 ADD PUSH1 0x0 DUP3 DUP3 SLOAD PUSH2 0x806 SWAP2 SWAP1 PUSH2 0x19D1 JUMP JUMPDEST SWAP3 POP POP DUP2 SWAP1 SSTORE POP PUSH2 0x862 PUSH1 0x40 MLOAD DUP1 PUSH1 0x40 ADD PUSH1 0x40 MSTORE DUP1 PUSH1 0x14 DUP2 MSTORE PUSH1 0x20 ADD PUSH32 0x63757272656E74207072656D69756D732069733A000000000000000000000000 DUP2 MSTORE POP PUSH1 0x2 PUSH1 0x0 DUP6 DUP2 MSTORE PUSH1 0x20 ADD SWAP1 DUP2 MSTORE PUSH1 0x20 ADD PUSH1 0x0 KECCAK256 PUSH1 0x1 ADD SLOAD PUSH2 0x14A4 JUMP JUMPDEST PUSH32 0xB4E524D3A0691CB1ECE34C51C744887E59F3FE2784648C09CB036109F69E23EB CALLER CALLVALUE CALLER ADDRESS PUSH1 0x2 PUSH1 0x0 DUP9 DUP2 MSTORE PUSH1 0x20 ADD SWAP1 DUP2 MSTORE PUSH1 0x20 ADD PUSH1 0x0 KECCAK256 PUSH1 0x1 ADD SLOAD PUSH1 0x1 PUSH1 0x0 DUP10 DUP2 MSTORE PUSH1 0x20 ADD SWAP1 DUP2 MSTORE PUSH1 0x20 ADD PUSH1 0x0 KECCAK256 PUSH1 0x1 ADD SLOAD PUSH1 0x40 MLOAD PUSH2 0x8C7 SWAP7 SWAP6 SWAP5 SWAP4 SWAP3 SWAP2 SWAP1 PUSH2 0x1A05 JUMP JUMPDEST PUSH1 0x40 MLOAD DUP1 SWAP2 SUB SWAP1 LOG1 POP POP JUMP JUMPDEST DUP1 PUSH1 0x0 DUP1 DUP3 DUP2 MSTORE PUSH1 0x20 ADD SWAP1 DUP2 MSTORE PUSH1 0x20 ADD PUSH1 0x0 KECCAK256 PUSH1 0x1 ADD PUSH1 0x0 SWAP1 SLOAD SWAP1 PUSH2 0x100 EXP SWAP1 DIV PUSH20 0xFFFFFFFFFFFFFFFFFFFFFFFFFFFFFFFFFFFFFFFF AND PUSH20 0xFFFFFFFFFFFFFFFFFFFFFFFFFFFFFFFFFFFFFFFF AND CALLER PUSH20 0xFFFFFFFFFFFFFFFFFFFFFFFFFFFFFFFFFFFFFFFF AND EQ PUSH2 0x941 JUMPI PUSH1 0x0 DUP1 REVERT JUMPDEST PUSH1 0x1 PUSH1 0x0 DUP3 DUP2 MSTORE PUSH1 0x20 ADD SWAP1 DUP2 MSTORE PUSH1 0x20 ADD PUSH1 0x0 KECCAK256 PUSH1 0x2 ADD SLOAD TIMESTAMP GT PUSH2 0x963 JUMPI PUSH1 0x0 DUP1 REVERT JUMPDEST PUSH1 0x1 PUSH1 0x0 DUP3 DUP2 MSTORE PUSH1 0x20 ADD SWAP1 DUP2 MSTORE PUSH1 0x20 ADD PUSH1 0x0 KECCAK256 PUSH1 0x0 ADD SLOAD PUSH1 0x1 PUSH1 0x0 DUP4 DUP2 MSTORE PUSH1 0x20 ADD SWAP1 DUP2 MSTORE PUSH1 0x20 ADD PUSH1 0x0 KECCAK256 PUSH1 0x1 ADD SLOAD EQ PUSH2 0x99B JUMPI PUSH1 0x0 DUP1 REVERT JUMPDEST PUSH1 0x0 DUP1 DUP4 DUP2 MSTORE PUSH1 0x20 ADD SWAP1 DUP2 MSTORE PUSH1 0x20 ADD PUSH1 0x0 KECCAK256 PUSH1 0x1 ADD PUSH1 0x0 SWAP1 SLOAD SWAP1 PUSH2 0x100 EXP SWAP1 DIV PUSH20 0xFFFFFFFFFFFFFFFFFFFFFFFFFFFFFFFFFFFFFFFF AND PUSH20 0xFFFFFFFFFFFFFFFFFFFFFFFFFFFFFFFFFFFFFFFF AND PUSH2 0x8FC PUSH1 0x2 PUSH1 0x0 DUP6 DUP2 MSTORE PUSH1 0x20 ADD SWAP1 DUP2 MSTORE PUSH1 0x20 ADD PUSH1 0x0 KECCAK256 PUSH1 0x1 ADD SLOAD SWAP1 DUP2 ISZERO MUL SWAP1 PUSH1 0x40 MLOAD PUSH1 0x0 PUSH1 0x40 MLOAD DUP1 DUP4 SUB DUP2 DUP6 DUP9 DUP9 CALL SWAP4 POP POP POP POP ISZERO DUP1 ISZERO PUSH2 0xA2C JUMPI RETURNDATASIZE PUSH1 0x0 DUP1 RETURNDATACOPY RETURNDATASIZE PUSH1 0x0 REVERT JUMPDEST POP PUSH1 0x0 PUSH1 0x2 PUSH1 0x0 DUP5 DUP2 MSTORE PUSH1 0x20 ADD SWAP1 DUP2 MSTORE PUSH1 0x20 ADD PUSH1 0x0 KECCAK256 PUSH1 0x1 ADD DUP2 SWAP1 SSTORE POP PUSH32 0x66B1503C3ECF228B3C665C611ABCD216A5CBDBCC890636E1294CEC4CA84C8C28 CALLER PUSH1 0x2 PUSH1 0x0 DUP6 DUP2 MSTORE PUSH1 0x20 ADD SWAP1 DUP2 MSTORE PUSH1 0x20 ADD PUSH1 0x0 KECCAK256 PUSH1 0x1 ADD SLOAD CALLER PUSH1 0x0 DUP1 DUP8 DUP2 MSTORE PUSH1 0x20 ADD SWAP1 DUP2 MSTORE PUSH1 0x20 ADD PUSH1 0x0 KECCAK256 PUSH1 0x1 ADD PUSH1 0x0 SWAP1 SLOAD SWAP1 PUSH2 0x100 EXP SWAP1 DIV PUSH20 0xFFFFFFFFFFFFFFFFFFFFFFFFFFFFFFFFFFFFFFFF AND PUSH1 0x2 PUSH1 0x0 DUP9 DUP2 MSTORE PUSH1 0x20 ADD SWAP1 DUP2 MSTORE PUSH1 0x20 ADD PUSH1 0x0 KECCAK256 PUSH1 0x1 ADD SLOAD PUSH1 0x1 PUSH1 0x0 DUP10 DUP2 MSTORE PUSH1 0x20 ADD SWAP1 DUP2 MSTORE PUSH1 0x20 ADD PUSH1 0x0 KECCAK256 PUSH1 0x1 ADD SLOAD PUSH1 0x40 MLOAD PUSH2 0xAF9 SWAP7 SWAP6 SWAP5 SWAP4 SWAP3 SWAP2 SWAP1 PUSH2 0x1941 JUMP JUMPDEST PUSH1 0x40 MLOAD DUP1 SWAP2 SUB SWAP1 LOG1 POP POP JUMP JUMPDEST DUP4 PUSH1 0x0 PUSH20 0xFFFFFFFFFFFFFFFFFFFFFFFFFFFFFFFFFFFFFFFF AND PUSH1 0x0 DUP1 DUP4 DUP2 MSTORE PUSH1 0x20 ADD SWAP1 DUP2 MSTORE PUSH1 0x20 ADD PUSH1 0x0 KECCAK256 PUSH1 0x0 ADD PUSH1 0x0 SWAP1 SLOAD SWAP1 PUSH2 0x100 EXP SWAP1 DIV PUSH20 0xFFFFFFFFFFFFFFFFFFFFFFFFFFFFFFFFFFFFFFFF AND PUSH20 0xFFFFFFFFFFFFFFFFFFFFFFFFFFFFFFFFFFFFFFFF AND EQ PUSH2 0xB74 JUMPI PUSH1 0x0 DUP1 REVERT JUMPDEST PUSH1 0x0 PUSH20 0xFFFFFFFFFFFFFFFFFFFFFFFFFFFFFFFFFFFFFFFF AND PUSH1 0x0 DUP1 DUP4 DUP2 MSTORE PUSH1 0x20 ADD SWAP1 DUP2 MSTORE PUSH1 0x20 ADD PUSH1 0x0 KECCAK256 PUSH1 0x1 ADD PUSH1 0x0 SWAP1 SLOAD SWAP1 PUSH2 0x100 EXP SWAP1 DIV PUSH20 0xFFFFFFFFFFFFFFFFFFFFFFFFFFFFFFFFFFFFFFFF AND PUSH20 0xFFFFFFFFFFFFFFFFFFFFFFFFFFFFFFFFFFFFFFFF AND EQ PUSH2 0xBE2 JUMPI PUSH1 0x0 DUP1 REVERT JUMPDEST PUSH1 0x0 DUP1 SHL PUSH1 0x0 DUP1 DUP4 DUP2 MSTORE PUSH1 0x20 ADD SWAP1 DUP2 MSTORE PUSH1 0x20 ADD PUSH1 0x0 KECCAK256 PUSH1 0x2 ADD SLOAD EQ PUSH2 0xC06 JUMPI PUSH1 0x0 DUP1 REVERT JUMPDEST PUSH1 0x0 PUSH20 0xFFFFFFFFFFFFFFFFFFFFFFFFFFFFFFFFFFFFFFFF AND PUSH1 0x0 DUP1 DUP4 DUP2 MSTORE PUSH1 0x20 ADD SWAP1 DUP2 MSTORE PUSH1 0x20 ADD PUSH1 0x0 KECCAK256 PUSH1 0x3 ADD PUSH1 0x0 SWAP1 SLOAD SWAP1 PUSH2 0x100 EXP SWAP1 DIV PUSH20 0xFFFFFFFFFFFFFFFFFFFFFFFFFFFFFFFFFFFFFFFF AND PUSH20 0xFFFFFFFFFFFFFFFFFFFFFFFFFFFFFFFFFFFFFFFF AND EQ PUSH2 0xC74 JUMPI PUSH1 0x0 DUP1 REVERT JUMPDEST PUSH1 0x40 MLOAD DUP1 PUSH1 0x80 ADD PUSH1 0x40 MSTORE DUP1 DUP10 PUSH20 0xFFFFFFFFFFFFFFFFFFFFFFFFFFFFFFFFFFFFFFFF AND DUP2 MSTORE PUSH1 0x20 ADD DUP9 PUSH20 0xFFFFFFFFFFFFFFFFFFFFFFFFFFFFFFFFFFFFFFFF AND DUP2 MSTORE PUSH1 0x20 ADD DUP7 DUP2 MSTORE PUSH1 0x20 ADD DUP8 PUSH20 0xFFFFFFFFFFFFFFFFFFFFFFFFFFFFFFFFFFFFFFFF AND DUP2 MSTORE POP PUSH1 0x0 DUP1 DUP8 DUP2 MSTORE PUSH1 0x20 ADD SWAP1 DUP2 MSTORE PUSH1 0x20 ADD PUSH1 0x0 KECCAK256 PUSH1 0x0 DUP3 ADD MLOAD DUP2 PUSH1 0x0 ADD PUSH1 0x0 PUSH2 0x100 EXP DUP2 SLOAD DUP2 PUSH20 0xFFFFFFFFFFFFFFFFFFFFFFFFFFFFFFFFFFFFFFFF MUL NOT AND SWAP1 DUP4 PUSH20 0xFFFFFFFFFFFFFFFFFFFFFFFFFFFFFFFFFFFFFFFF AND MUL OR SWAP1 SSTORE POP PUSH1 0x20 DUP3 ADD MLOAD DUP2 PUSH1 0x1 ADD PUSH1 0x0 PUSH2 0x100 EXP DUP2 SLOAD DUP2 PUSH20 0xFFFFFFFFFFFFFFFFFFFFFFFFFFFFFFFFFFFFFFFF MUL NOT AND SWAP1 DUP4 PUSH20 0xFFFFFFFFFFFFFFFFFFFFFFFFFFFFFFFFFFFFFFFF AND MUL OR SWAP1 SSTORE POP PUSH1 0x40 DUP3 ADD MLOAD DUP2 PUSH1 0x2 ADD SSTORE PUSH1 0x60 DUP3 ADD MLOAD DUP2 PUSH1 0x3 ADD PUSH1 0x0 PUSH2 0x100 EXP DUP2 SLOAD DUP2 PUSH20 0xFFFFFFFFFFFFFFFFFFFFFFFFFFFFFFFFFFFFFFFF MUL NOT AND SWAP1 DUP4 PUSH20 0xFFFFFFFFFFFFFFFFFFFFFFFFFFFFFFFFFFFFFFFF AND MUL OR SWAP1 SSTORE POP SWAP1 POP POP PUSH1 0x40 MLOAD DUP1 PUSH1 0x80 ADD PUSH1 0x40 MSTORE DUP1 DUP12 DUP2 MSTORE PUSH1 0x20 ADD PUSH1 0x0 DUP2 MSTORE PUSH1 0x20 ADD DUP4 DUP7 PUSH2 0xDEF SWAP2 SWAP1 PUSH2 0x19D1 JUMP JUMPDEST DUP2 MSTORE PUSH1 0x20 ADD DUP4 PUSH1 0x2 PUSH2 0xE01 SWAP2 SWAP1 PUSH2 0x1A66 JUMP JUMPDEST DUP7 PUSH2 0xE0C SWAP2 SWAP1 PUSH2 0x19D1 JUMP JUMPDEST DUP2 MSTORE POP PUSH1 0x1 PUSH1 0x0 DUP8 DUP2 MSTORE PUSH1 0x20 ADD SWAP1 DUP2 MSTORE PUSH1 0x20 ADD PUSH1 0x0 KECCAK256 PUSH1 0x0 DUP3 ADD MLOAD DUP2 PUSH1 0x0 ADD SSTORE PUSH1 0x20 DUP3 ADD MLOAD DUP2 PUSH1 0x1 ADD SSTORE PUSH1 0x40 DUP3 ADD MLOAD DUP2 PUSH1 0x2 ADD SSTORE PUSH1 0x60 DUP3 ADD MLOAD DUP2 PUSH1 0x3 ADD SSTORE SWAP1 POP POP PUSH1 0x40 MLOAD DUP1 PUSH1 0x60 ADD PUSH1 0x40 MSTORE DUP1 DUP11 DUP2 MSTORE PUSH1 0x20 ADD PUSH1 0x0 DUP2 MSTORE PUSH1 0x20 ADD DUP4 DUP7 PUSH2 0xE71 SWAP2 SWAP1 PUSH2 0x19D1 JUMP JUMPDEST DUP2 MSTORE POP PUSH1 0x2 PUSH1 0x0 DUP8 DUP2 MSTORE PUSH1 0x20 ADD SWAP1 DUP2 MSTORE PUSH1 0x20 ADD PUSH1 0x0 KECCAK256 PUSH1 0x0 DUP3 ADD MLOAD DUP2 PUSH1 0x0 ADD SSTORE PUSH1 0x20 DUP3 ADD MLOAD DUP2 PUSH1 0x1 ADD SSTORE PUSH1 0x40 DUP3 ADD MLOAD DUP2 PUSH1 0x2 ADD SSTORE SWAP1 POP POP PUSH1 0x1 ISZERO ISZERO DUP4 ISZERO ISZERO SUB PUSH2 0xF43 JUMPI PUSH32 0xC79AEB2FE76F332A1D6D3F45F05258CA3B85A3EE38F40E55421212E72EA99E8C DUP9 DUP9 DUP12 DUP14 DUP9 DUP8 PUSH1 0x2 PUSH2 0xEE7 SWAP2 SWAP1 PUSH2 0x1A66 JUMP JUMPDEST DUP11 PUSH2 0xEF2 SWAP2 SWAP1 PUSH2 0x19D1 JUMP JUMPDEST DUP9 PUSH1 0x3 PUSH2 0xEFF SWAP2 SWAP1 PUSH2 0x1A66 JUMP JUMPDEST DUP12 PUSH2 0xF0A SWAP2 SWAP1 PUSH2 0x19D1 JUMP JUMPDEST DUP10 PUSH1 0x6 PUSH2 0xF17 SWAP2 SWAP1 PUSH2 0x1A66 JUMP JUMPDEST DUP13 PUSH2 0xF22 SWAP2 SWAP1 PUSH2 0x19D1 JUMP JUMPDEST PUSH1 0x40 MLOAD PUSH2 0xF36 SWAP9 SWAP8 SWAP7 SWAP6 SWAP5 SWAP4 SWAP3 SWAP2 SWAP1 PUSH2 0x1AA8 JUMP JUMPDEST PUSH1 0x40 MLOAD DUP1 SWAP2 SUB SWAP1 LOG1 PUSH2 0xFCE JUMP JUMPDEST PUSH32 0xC79AEB2FE76F332A1D6D3F45F05258CA3B85A3EE38F40E55421212E72EA99E8C DUP9 DUP9 DUP12 DUP14 DUP9 DUP8 PUSH1 0x1 PUSH2 0xF76 SWAP2 SWAP1 PUSH2 0x1A66 JUMP JUMPDEST DUP11 PUSH2 0xF81 SWAP2 SWAP1 PUSH2 0x19D1 JUMP JUMPDEST DUP9 PUSH1 0x4 PUSH2 0xF8E SWAP2 SWAP1 PUSH2 0x1A66 JUMP JUMPDEST DUP12 PUSH2 0xF99 SWAP2 SWAP1 PUSH2 0x19D1 JUMP JUMPDEST DUP10 PUSH1 0x5 PUSH2 0xFA6 SWAP2 SWAP1 PUSH2 0x1A66 JUMP JUMPDEST DUP13 PUSH2 0xFB1 SWAP2 SWAP1 PUSH2 0x19D1 JUMP JUMPDEST PUSH1 0x40 MLOAD PUSH2 0xFC5 SWAP9 SWAP8 SWAP7 SWAP6 SWAP5 SWAP4 SWAP3 SWAP2 SWAP1 PUSH2 0x1AA8 JUMP JUMPDEST PUSH1 0x40 MLOAD DUP1 SWAP2 SUB SWAP1 LOG1 JUMPDEST POP POP POP POP POP POP POP POP POP POP JUMP JUMPDEST DUP2 DUP2 PUSH1 0x0 DUP1 DUP3 DUP2 MSTORE PUSH1 0x20 ADD SWAP1 DUP2 MSTORE PUSH1 0x20 ADD PUSH1 0x0 KECCAK256 PUSH1 0x0 ADD PUSH1 0x0 SWAP1 SLOAD SWAP1 PUSH2 0x100 EXP SWAP1 DIV PUSH20 0xFFFFFFFFFFFFFFFFFFFFFFFFFFFFFFFFFFFFFFFF AND PUSH20 0xFFFFFFFFFFFFFFFFFFFFFFFFFFFFFFFFFFFFFFFF AND CALLER PUSH20 0xFFFFFFFFFFFFFFFFFFFFFFFFFFFFFFFFFFFFFFFF AND EQ PUSH2 0x1049 JUMPI PUSH1 0x0 DUP1 REVERT JUMPDEST DUP1 PUSH1 0x2 DUP4 PUSH1 0x40 MLOAD PUSH1 0x20 ADD PUSH2 0x105D SWAP2 SWAP1 PUSH2 0x1B26 JUMP JUMPDEST PUSH1 0x40 MLOAD PUSH1 0x20 DUP2 DUP4 SUB SUB DUP2 MSTORE SWAP1 PUSH1 0x40 MSTORE PUSH1 0x40 MLOAD PUSH2 0x1079 SWAP2 SWAP1 PUSH2 0x1BB2 JUMP JUMPDEST PUSH1 0x20 PUSH1 0x40 MLOAD DUP1 DUP4 SUB DUP2 DUP6 GAS STATICCALL ISZERO DUP1 ISZERO PUSH2 0x1096 JUMPI RETURNDATASIZE PUSH1 0x0 DUP1 RETURNDATACOPY RETURNDATASIZE PUSH1 0x0 REVERT JUMPDEST POP POP POP PUSH1 0x40 MLOAD RETURNDATASIZE PUSH1 0x1F NOT PUSH1 0x1F DUP3 ADD AND DUP3 ADD DUP1 PUSH1 0x40 MSTORE POP DUP2 ADD SWAP1 PUSH2 0x10B9 SWAP2 SWAP1 PUSH2 0x1BDE JUMP JUMPDEST EQ PUSH2 0x10C3 JUMPI PUSH1 0x0 DUP1 REVERT JUMPDEST PUSH1 0x1 PUSH1 0x0 DUP3 DUP2 MSTORE PUSH1 0x20 ADD SWAP1 DUP2 MSTORE PUSH1 0x20 ADD PUSH1 0x0 KECCAK256 PUSH1 0x2 ADD SLOAD TIMESTAMP LT PUSH2 0x10E5 JUMPI PUSH1 0x0 DUP1 REVERT JUMPDEST PUSH1 0x0 DUP1 PUSH1 0x0 DUP6 DUP2 MSTORE PUSH1 0x20 ADD SWAP1 DUP2 MSTORE PUSH1 0x20 ADD PUSH1 0x0 KECCAK256 PUSH1 0x3 ADD PUSH1 0x0 SWAP1 SLOAD SWAP1 PUSH2 0x100 EXP SWAP1 DIV PUSH20 0xFFFFFFFFFFFFFFFFFFFFFFFFFFFFFFFFFFFFFFFF AND SWAP1 POP DUP1 PUSH20 0xFFFFFFFFFFFFFFFFFFFFFFFFFFFFFFFFFFFFFFFF AND PUSH4 0xA9059CBB PUSH1 0x0 DUP1 DUP8 DUP2 MSTORE PUSH1 0x20 ADD SWAP1 DUP2 MSTORE PUSH1 0x20 ADD PUSH1 0x0 KECCAK256 PUSH1 0x0 ADD PUSH1 0x0 SWAP1 SLOAD SWAP1 PUSH2 0x100 EXP SWAP1 DIV PUSH20 0xFFFFFFFFFFFFFFFFFFFFFFFFFFFFFFFFFFFFFFFF AND PUSH1 0x1 PUSH1 0x0 DUP9 DUP2 MSTORE PUSH1 0x20 ADD SWAP1 DUP2 MSTORE PUSH1 0x20 ADD PUSH1 0x0 KECCAK256 PUSH1 0x1 ADD SLOAD PUSH1 0x40 MLOAD DUP4 PUSH4 0xFFFFFFFF AND PUSH1 0xE0 SHL DUP2 MSTORE PUSH1 0x4 ADD PUSH2 0x11A5 SWAP3 SWAP2 SWAP1 PUSH2 0x1C0B JUMP JUMPDEST PUSH1 0x20 PUSH1 0x40 MLOAD DUP1 DUP4 SUB DUP2 PUSH1 0x0 DUP8 GAS CALL ISZERO DUP1 ISZERO PUSH2 0x11C4 JUMPI RETURNDATASIZE PUSH1 0x0 DUP1 RETURNDATACOPY RETURNDATASIZE PUSH1 0x0 REVERT JUMPDEST POP POP POP POP PUSH1 0x40 MLOAD RETURNDATASIZE PUSH1 0x1F NOT PUSH1 0x1F DUP3 ADD AND DUP3 ADD DUP1 PUSH1 0x40 MSTORE POP DUP2 ADD SWAP1 PUSH2 0x11E8 SWAP2 SWAP1 PUSH2 0x1C49 JUMP JUMPDEST POP PUSH1 0x0 PUSH1 0x1 PUSH1 0x0 DUP7 DUP2 MSTORE PUSH1 0x20 ADD SWAP1 DUP2 MSTORE PUSH1 0x20 ADD PUSH1 0x0 KECCAK256 PUSH1 0x1 ADD DUP2 SWAP1 SSTORE POP PUSH32 0x3484574BAB0531880C22E3C11BD9B4827F810E6BBB68433D67EC59F1C3B336F6 CALLER PUSH1 0x1 PUSH1 0x0 DUP8 DUP2 MSTORE PUSH1 0x20 ADD SWAP1 DUP2 MSTORE PUSH1 0x20 ADD PUSH1 0x0 KECCAK256 PUSH1 0x1 ADD SLOAD CALLER PUSH1 0x0 DUP1 DUP10 DUP2 MSTORE PUSH1 0x20 ADD SWAP1 DUP2 MSTORE PUSH1 0x20 ADD PUSH1 0x0 KECCAK256 PUSH1 0x0 ADD PUSH1 0x0 SWAP1 SLOAD SWAP1 PUSH2 0x100 EXP SWAP1 DIV PUSH20 0xFFFFFFFFFFFFFFFFFFFFFFFFFFFFFFFFFFFFFFFF AND PUSH1 0x2 PUSH1 0x0 DUP11 DUP2 MSTORE PUSH1 0x20 ADD SWAP1 DUP2 MSTORE PUSH1 0x20 ADD PUSH1 0x0 KECCAK256 PUSH1 0x1 ADD SLOAD PUSH1 0x1 PUSH1 0x0 DUP12 DUP2 MSTORE PUSH1 0x20 ADD SWAP1 DUP2 MSTORE PUSH1 0x20 ADD PUSH1 0x0 KECCAK256 PUSH1 0x1 ADD SLOAD PUSH1 0x40 MLOAD PUSH2 0x12B5 SWAP7 SWAP6 SWAP5 SWAP4 SWAP3 SWAP2 SWAP1 PUSH2 0x1941 JUMP JUMPDEST PUSH1 0x40 MLOAD DUP1 SWAP2 SUB SWAP1 LOG1 POP POP POP POP POP JUMP JUMPDEST DUP1 PUSH1 0x0 DUP1 DUP3 DUP2 MSTORE PUSH1 0x20 ADD SWAP1 DUP2 MSTORE PUSH1 0x20 ADD PUSH1 0x0 KECCAK256 PUSH1 0x0 ADD PUSH1 0x0 SWAP1 SLOAD SWAP1 PUSH2 0x100 EXP SWAP1 DIV PUSH20 0xFFFFFFFFFFFFFFFFFFFFFFFFFFFFFFFFFFFFFFFF AND PUSH20 0xFFFFFFFFFFFFFFFFFFFFFFFFFFFFFFFFFFFFFFFF AND CALLER PUSH20 0xFFFFFFFFFFFFFFFFFFFFFFFFFFFFFFFFFFFFFFFF AND EQ PUSH2 0x1332 JUMPI PUSH1 0x0 DUP1 REVERT JUMPDEST PUSH1 0x1 PUSH1 0x0 DUP3 DUP2 MSTORE PUSH1 0x20 ADD SWAP1 DUP2 MSTORE PUSH1 0x20 ADD PUSH1 0x0 KECCAK256 PUSH1 0x0 ADD SLOAD CALLVALUE EQ PUSH2 0x1354 JUMPI PUSH1 0x0 DUP1 REVERT JUMPDEST PUSH1 0x1 PUSH1 0x0 DUP3 DUP2 MSTORE PUSH1 0x20 ADD SWAP1 DUP2 MSTORE PUSH1 0x20 ADD PUSH1 0x0 KECCAK256 PUSH1 0x2 ADD SLOAD TIMESTAMP LT PUSH2 0x1376 JUMPI PUSH1 0x0 DUP1 REVERT JUMPDEST CALLVALUE PUSH1 0x1 PUSH1 0x0 DUP5 DUP2 MSTORE PUSH1 0x20 ADD SWAP1 DUP2 MSTORE PUSH1 0x20 ADD PUSH1 0x0 KECCAK256 PUSH1 0x1 ADD PUSH1 0x0 DUP3 DUP3 SLOAD PUSH2 0x139C SWAP2 SWAP1 PUSH2 0x19D1 JUMP JUMPDEST SWAP3 POP POP DUP2 SWAP1 SSTORE POP PUSH32 0x1F0D9D92D563A9E40C820D68CF6BB63BD117BE35C9D16D896F70D7A9537D2230 CALLER CALLVALUE CALLER ADDRESS PUSH1 0x2 PUSH1 0x0 DUP9 DUP2 MSTORE PUSH1 0x20 ADD SWAP1 DUP2 MSTORE PUSH1 0x20 ADD PUSH1 0x0 KECCAK256 PUSH1 0x1 ADD SLOAD PUSH1 0x1 PUSH1 0x0 DUP10 DUP2 MSTORE PUSH1 0x20 ADD SWAP1 DUP2 MSTORE PUSH1 0x20 ADD PUSH1 0x0 KECCAK256 PUSH1 0x1 ADD SLOAD PUSH1 0x40 MLOAD PUSH2 0x1408 SWAP7 SWAP6 SWAP5 SWAP4 SWAP3 SWAP2 SWAP1 PUSH2 0x1A05 JUMP JUMPDEST PUSH1 0x40 MLOAD DUP1 SWAP2 SUB SWAP1 LOG1 POP POP JUMP JUMPDEST PUSH1 0x0 PUSH1 0x20 MSTORE DUP1 PUSH1 0x0 MSTORE PUSH1 0x40 PUSH1 0x0 KECCAK256 PUSH1 0x0 SWAP2 POP SWAP1 POP DUP1 PUSH1 0x0 ADD PUSH1 0x0 SWAP1 SLOAD SWAP1 PUSH2 0x100 EXP SWAP1 DIV PUSH20 0xFFFFFFFFFFFFFFFFFFFFFFFFFFFFFFFFFFFFFFFF AND SWAP1 DUP1 PUSH1 0x1 ADD PUSH1 0x0 SWAP1 SLOAD SWAP1 PUSH2 0x100 EXP SWAP1 DIV PUSH20 0xFFFFFFFFFFFFFFFFFFFFFFFFFFFFFFFFFFFFFFFF AND SWAP1 DUP1 PUSH1 0x2 ADD SLOAD SWAP1 DUP1 PUSH1 0x3 ADD PUSH1 0x0 SWAP1 SLOAD SWAP1 PUSH2 0x100 EXP SWAP1 DIV PUSH20 0xFFFFFFFFFFFFFFFFFFFFFFFFFFFFFFFFFFFFFFFF AND SWAP1 POP DUP5 JUMP JUMPDEST PUSH2 0x153C DUP3 DUP3 PUSH1 0x40 MLOAD PUSH1 0x24 ADD PUSH2 0x14BA SWAP3 SWAP2 SWAP1 PUSH2 0x1CDC JUMP JUMPDEST PUSH1 0x40 MLOAD PUSH1 0x20 DUP2 DUP4 SUB SUB DUP2 MSTORE SWAP1 PUSH1 0x40 MSTORE PUSH32 0xB60E72CC00000000000000000000000000000000000000000000000000000000 PUSH28 0xFFFFFFFFFFFFFFFFFFFFFFFFFFFFFFFFFFFFFFFFFFFFFFFFFFFFFFFF NOT AND PUSH1 0x20 DUP3 ADD DUP1 MLOAD PUSH28 0xFFFFFFFFFFFFFFFFFFFFFFFFFFFFFFFFFFFFFFFFFFFFFFFFFFFFFFFF DUP4 DUP2 DUP4 AND OR DUP4 MSTORE POP POP POP POP PUSH2 0x1540 JUMP JUMPDEST POP POP JUMP JUMPDEST PUSH1 0x0 DUP2 MLOAD SWAP1 POP PUSH1 0x0 PUSH11 0x636F6E736F6C652E6C6F67 SWAP1 POP PUSH1 0x20 DUP4 ADD PUSH1 0x0 DUP1 DUP5 DUP4 DUP6 GAS STATICCALL POP POP POP POP POP JUMP JUMPDEST PUSH1 0x0 DUP1 REVERT JUMPDEST PUSH1 0x0 DUP2 SWAP1 POP SWAP2 SWAP1 POP JUMP JUMPDEST PUSH2 0x1581 DUP2 PUSH2 0x156E JUMP JUMPDEST DUP2 EQ PUSH2 0x158C JUMPI PUSH1 0x0 DUP1 REVERT JUMPDEST POP JUMP JUMPDEST PUSH1 0x0 DUP2 CALLDATALOAD SWAP1 POP PUSH2 0x159E DUP2 PUSH2 0x1578 JUMP JUMPDEST SWAP3 SWAP2 POP POP JUMP JUMPDEST PUSH1 0x0 PUSH1 0x20 DUP3 DUP5 SUB SLT ISZERO PUSH2 0x15BA JUMPI PUSH2 0x15B9 PUSH2 0x1569 JUMP JUMPDEST JUMPDEST PUSH1 0x0 PUSH2 0x15C8 DUP5 DUP3 DUP6 ADD PUSH2 0x158F JUMP JUMPDEST SWAP2 POP POP SWAP3 SWAP2 POP POP JUMP JUMPDEST PUSH1 0x0 DUP2 SWAP1 POP SWAP2 SWAP1 POP JUMP JUMPDEST PUSH2 0x15E4 DUP2 PUSH2 0x15D1 JUMP JUMPDEST DUP3 MSTORE POP POP JUMP JUMPDEST PUSH1 0x0 PUSH1 0x60 DUP3 ADD SWAP1 POP PUSH2 0x15FF PUSH1 0x0 DUP4 ADD DUP7 PUSH2 0x15DB JUMP JUMPDEST PUSH2 0x160C PUSH1 0x20 DUP4 ADD DUP6 PUSH2 0x15DB JUMP JUMPDEST PUSH2 0x1619 PUSH1 0x40 DUP4 ADD DUP5 PUSH2 0x15DB JUMP JUMPDEST SWAP5 SWAP4 POP POP POP POP JUMP JUMPDEST PUSH1 0x0 PUSH1 0x80 DUP3 ADD SWAP1 POP PUSH2 0x1636 PUSH1 0x0 DUP4 ADD DUP8 PUSH2 0x15DB JUMP JUMPDEST PUSH2 0x1643 PUSH1 0x20 DUP4 ADD DUP7 PUSH2 0x15DB JUMP JUMPDEST PUSH2 0x1650 PUSH1 0x40 DUP4 ADD DUP6 PUSH2 0x15DB JUMP JUMPDEST PUSH2 0x165D PUSH1 0x60 DUP4 ADD DUP5 PUSH2 0x15DB JUMP JUMPDEST SWAP6 SWAP5 POP POP POP POP POP JUMP JUMPDEST PUSH2 0x166F DUP2 PUSH2 0x15D1 JUMP JUMPDEST DUP2 EQ PUSH2 0x167A JUMPI PUSH1 0x0 DUP1 REVERT JUMPDEST POP JUMP JUMPDEST PUSH1 0x0 DUP2 CALLDATALOAD SWAP1 POP PUSH2 0x168C DUP2 PUSH2 0x1666 JUMP JUMPDEST SWAP3 SWAP2 POP POP JUMP JUMPDEST PUSH1 0x0 PUSH20 0xFFFFFFFFFFFFFFFFFFFFFFFFFFFFFFFFFFFFFFFF DUP3 AND SWAP1 POP SWAP2 SWAP1 POP JUMP JUMPDEST PUSH1 0x0 PUSH2 0x16BD DUP3 PUSH2 0x1692 JUMP JUMPDEST SWAP1 POP SWAP2 SWAP1 POP JUMP JUMPDEST PUSH2 0x16CD DUP2 PUSH2 0x16B2 JUMP JUMPDEST DUP2 EQ PUSH2 0x16D8 JUMPI PUSH1 0x0 DUP1 REVERT JUMPDEST POP JUMP JUMPDEST PUSH1 0x0 DUP2 CALLDATALOAD SWAP1 POP PUSH2 0x16EA DUP2 PUSH2 0x16C4 JUMP JUMPDEST SWAP3 SWAP2 POP POP JUMP JUMPDEST PUSH1 0x0 PUSH2 0x16FB DUP3 PUSH2 0x1692 JUMP JUMPDEST SWAP1 POP SWAP2 SWAP1 POP JUMP JUMPDEST PUSH2 0x170B DUP2 PUSH2 0x16F0 JUMP JUMPDEST DUP2 EQ PUSH2 0x1716 JUMPI PUSH1 0x0 DUP1 REVERT JUMPDEST POP JUMP JUMPDEST PUSH1 0x0 DUP2 CALLDATALOAD SWAP1 POP PUSH2 0x1728 DUP2 PUSH2 0x1702 JUMP JUMPDEST SWAP3 SWAP2 POP POP JUMP JUMPDEST PUSH1 0x0 DUP2 ISZERO ISZERO SWAP1 POP SWAP2 SWAP1 POP JUMP JUMPDEST PUSH2 0x1743 DUP2 PUSH2 0x172E JUMP JUMPDEST DUP2 EQ PUSH2 0x174E JUMPI PUSH1 0x0 DUP1 REVERT JUMPDEST POP JUMP JUMPDEST PUSH1 0x0 DUP2 CALLDATALOAD SWAP1 POP PUSH2 0x1760 DUP2 PUSH2 0x173A JUMP JUMPDEST SWAP3 SWAP2 POP POP JUMP JUMPDEST PUSH1 0x0 DUP1 PUSH1 0x0 DUP1 PUSH1 0x0 DUP1 PUSH1 0x0 DUP1 PUSH1 0x0 PUSH2 0x120 DUP11 DUP13 SUB SLT ISZERO PUSH2 0x1789 JUMPI PUSH2 0x1788 PUSH2 0x1569 JUMP JUMPDEST JUMPDEST PUSH1 0x0 PUSH2 0x1797 DUP13 DUP3 DUP14 ADD PUSH2 0x167D JUMP JUMPDEST SWAP10 POP POP PUSH1 0x20 PUSH2 0x17A8 DUP13 DUP3 DUP14 ADD PUSH2 0x167D JUMP JUMPDEST SWAP9 POP POP PUSH1 0x40 PUSH2 0x17B9 DUP13 DUP3 DUP14 ADD PUSH2 0x16DB JUMP JUMPDEST SWAP8 POP POP PUSH1 0x60 PUSH2 0x17CA DUP13 DUP3 DUP14 ADD PUSH2 0x16DB JUMP JUMPDEST SWAP7 POP POP PUSH1 0x80 PUSH2 0x17DB DUP13 DUP3 DUP14 ADD PUSH2 0x1719 JUMP JUMPDEST SWAP6 POP POP PUSH1 0xA0 PUSH2 0x17EC DUP13 DUP3 DUP14 ADD PUSH2 0x158F JUMP JUMPDEST SWAP5 POP POP PUSH1 0xC0 PUSH2 0x17FD DUP13 DUP3 DUP14 ADD PUSH2 0x167D JUMP JUMPDEST SWAP4 POP POP PUSH1 0xE0 PUSH2 0x180E DUP13 DUP3 DUP14 ADD PUSH2 0x1751 JUMP JUMPDEST SWAP3 POP POP PUSH2 0x100 PUSH2 0x1820 DUP13 DUP3 DUP14 ADD PUSH2 0x167D JUMP JUMPDEST SWAP2 POP POP SWAP3 SWAP6 SWAP9 POP SWAP3 SWAP6 SWAP9 POP SWAP3 SWAP6 SWAP9 JUMP JUMPDEST PUSH1 0x0 DUP1 PUSH1 0x40 DUP4 DUP6 SUB SLT ISZERO PUSH2 0x1847 JUMPI PUSH2 0x1846 PUSH2 0x1569 JUMP JUMPDEST JUMPDEST PUSH1 0x0 PUSH2 0x1855 DUP6 DUP3 DUP7 ADD PUSH2 0x158F JUMP JUMPDEST SWAP3 POP POP PUSH1 0x20 PUSH2 0x1866 DUP6 DUP3 DUP7 ADD PUSH2 0x158F JUMP JUMPDEST SWAP2 POP POP SWAP3 POP SWAP3 SWAP1 POP JUMP JUMPDEST PUSH2 0x1879 DUP2 PUSH2 0x16B2 JUMP JUMPDEST DUP3 MSTORE POP POP JUMP JUMPDEST PUSH2 0x1888 DUP2 PUSH2 0x156E JUMP JUMPDEST DUP3 MSTORE POP POP JUMP JUMPDEST PUSH2 0x1897 DUP2 PUSH2 0x16F0 JUMP JUMPDEST DUP3 MSTORE POP POP JUMP JUMPDEST PUSH1 0x0 PUSH1 0x80 DUP3 ADD SWAP1 POP PUSH2 0x18B2 PUSH1 0x0 DUP4 ADD DUP8 PUSH2 0x1870 JUMP JUMPDEST PUSH2 0x18BF PUSH1 0x20 DUP4 ADD DUP7 PUSH2 0x1870 JUMP JUMPDEST PUSH2 0x18CC PUSH1 0x40 DUP4 ADD DUP6 PUSH2 0x187F JUMP JUMPDEST PUSH2 0x18D9 PUSH1 0x60 DUP4 ADD DUP5 PUSH2 0x188E JUMP JUMPDEST SWAP6 SWAP5 POP POP POP POP POP JUMP JUMPDEST PUSH1 0x0 DUP2 SWAP1 POP SWAP2 SWAP1 POP JUMP JUMPDEST PUSH1 0x0 PUSH2 0x1907 PUSH2 0x1902 PUSH2 0x18FD DUP5 PUSH2 0x1692 JUMP JUMPDEST PUSH2 0x18E2 JUMP JUMPDEST PUSH2 0x1692 JUMP JUMPDEST SWAP1 POP SWAP2 SWAP1 POP JUMP JUMPDEST PUSH1 0x0 PUSH2 0x1919 DUP3 PUSH2 0x18EC JUMP JUMPDEST SWAP1 POP SWAP2 SWAP1 POP JUMP JUMPDEST PUSH1 0x0 PUSH2 0x192B DUP3 PUSH2 0x190E JUMP JUMPDEST SWAP1 POP SWAP2 SWAP1 POP JUMP JUMPDEST PUSH2 0x193B DUP2 PUSH2 0x1920 JUMP JUMPDEST DUP3 MSTORE POP POP JUMP JUMPDEST PUSH1 0x0 PUSH1 0xC0 DUP3 ADD SWAP1 POP PUSH2 0x1956 PUSH1 0x0 DUP4 ADD DUP10 PUSH2 0x188E JUMP JUMPDEST PUSH2 0x1963 PUSH1 0x20 DUP4 ADD DUP9 PUSH2 0x15DB JUMP JUMPDEST PUSH2 0x1970 PUSH1 0x40 DUP4 ADD DUP8 PUSH2 0x188E JUMP JUMPDEST PUSH2 0x197D PUSH1 0x60 DUP4 ADD DUP7 PUSH2 0x1932 JUMP JUMPDEST PUSH2 0x198A PUSH1 0x80 DUP4 ADD DUP6 PUSH2 0x15DB JUMP JUMPDEST PUSH2 0x1997 PUSH1 0xA0 DUP4 ADD DUP5 PUSH2 0x15DB JUMP JUMPDEST SWAP8 SWAP7 POP POP POP POP POP POP POP JUMP JUMPDEST PUSH32 0x4E487B7100000000000000000000000000000000000000000000000000000000 PUSH1 0x0 MSTORE PUSH1 0x11 PUSH1 0x4 MSTORE PUSH1 0x24 PUSH1 0x0 REVERT JUMPDEST PUSH1 0x0 PUSH2 0x19DC DUP3 PUSH2 0x15D1 JUMP JUMPDEST SWAP2 POP PUSH2 0x19E7 DUP4 PUSH2 0x15D1 JUMP JUMPDEST SWAP3 POP DUP3 DUP3 ADD SWAP1 POP DUP1 DUP3 GT ISZERO PUSH2 0x19FF JUMPI PUSH2 0x19FE PUSH2 0x19A2 JUMP JUMPDEST JUMPDEST SWAP3 SWAP2 POP POP JUMP JUMPDEST PUSH1 0x0 PUSH1 0xC0 DUP3 ADD SWAP1 POP PUSH2 0x1A1A PUSH1 0x0 DUP4 ADD DUP10 PUSH2 0x188E JUMP JUMPDEST PUSH2 0x1A27 PUSH1 0x20 DUP4 ADD DUP9 PUSH2 0x15DB JUMP JUMPDEST PUSH2 0x1A34 PUSH1 0x40 DUP4 ADD DUP8 PUSH2 0x188E JUMP JUMPDEST PUSH2 0x1A41 PUSH1 0x60 DUP4 ADD DUP7 PUSH2 0x188E JUMP JUMPDEST PUSH2 0x1A4E PUSH1 0x80 DUP4 ADD DUP6 PUSH2 0x15DB JUMP JUMPDEST PUSH2 0x1A5B PUSH1 0xA0 DUP4 ADD DUP5 PUSH2 0x15DB JUMP JUMPDEST SWAP8 SWAP7 POP POP POP POP POP POP POP JUMP JUMPDEST PUSH1 0x0 PUSH2 0x1A71 DUP3 PUSH2 0x15D1 JUMP JUMPDEST SWAP2 POP PUSH2 0x1A7C DUP4 PUSH2 0x15D1 JUMP JUMPDEST SWAP3 POP DUP3 DUP3 MUL PUSH2 0x1A8A DUP2 PUSH2 0x15D1 JUMP JUMPDEST SWAP2 POP DUP3 DUP3 DIV DUP5 EQ DUP4 ISZERO OR PUSH2 0x1AA1 JUMPI PUSH2 0x1AA0 PUSH2 0x19A2 JUMP JUMPDEST JUMPDEST POP SWAP3 SWAP2 POP POP JUMP JUMPDEST PUSH1 0x0 PUSH2 0x100 DUP3 ADD SWAP1 POP PUSH2 0x1ABE PUSH1 0x0 DUP4 ADD DUP12 PUSH2 0x1870 JUMP JUMPDEST PUSH2 0x1ACB PUSH1 0x20 DUP4 ADD DUP11 PUSH2 0x1870 JUMP JUMPDEST PUSH2 0x1AD8 PUSH1 0x40 DUP4 ADD DUP10 PUSH2 0x15DB JUMP JUMPDEST PUSH2 0x1AE5 PUSH1 0x60 DUP4 ADD DUP9 PUSH2 0x15DB JUMP JUMPDEST PUSH2 0x1AF2 PUSH1 0x80 DUP4 ADD DUP8 PUSH2 0x15DB JUMP JUMPDEST PUSH2 0x1AFF PUSH1 0xA0 DUP4 ADD DUP7 PUSH2 0x15DB JUMP JUMPDEST PUSH2 0x1B0C PUSH1 0xC0 DUP4 ADD DUP6 PUSH2 0x15DB JUMP JUMPDEST PUSH2 0x1B19 PUSH1 0xE0 DUP4 ADD DUP5 PUSH2 0x15DB JUMP JUMPDEST SWAP10 SWAP9 POP POP POP POP POP POP POP POP POP JUMP JUMPDEST PUSH1 0x0 PUSH1 0x20 DUP3 ADD SWAP1 POP PUSH2 0x1B3B PUSH1 0x0 DUP4 ADD DUP5 PUSH2 0x187F JUMP JUMPDEST SWAP3 SWAP2 POP POP JUMP JUMPDEST PUSH1 0x0 DUP2 MLOAD SWAP1 POP SWAP2 SWAP1 POP JUMP JUMPDEST PUSH1 0x0 DUP2 SWAP1 POP SWAP3 SWAP2 POP POP JUMP JUMPDEST PUSH1 0x0 JUMPDEST DUP4 DUP2 LT ISZERO PUSH2 0x1B75 JUMPI DUP1 DUP3 ADD MLOAD DUP2 DUP5 ADD MSTORE PUSH1 0x20 DUP2 ADD SWAP1 POP PUSH2 0x1B5A JUMP JUMPDEST PUSH1 0x0 DUP5 DUP5 ADD MSTORE POP POP POP POP JUMP JUMPDEST PUSH1 0x0 PUSH2 0x1B8C DUP3 PUSH2 0x1B41 JUMP JUMPDEST PUSH2 0x1B96 DUP2 DUP6 PUSH2 0x1B4C JUMP JUMPDEST SWAP4 POP PUSH2 0x1BA6 DUP2 DUP6 PUSH1 0x20 DUP7 ADD PUSH2 0x1B57 JUMP JUMPDEST DUP1 DUP5 ADD SWAP2 POP POP SWAP3 SWAP2 POP POP JUMP JUMPDEST PUSH1 0x0 PUSH2 0x1BBE DUP3 DUP5 PUSH2 0x1B81 JUMP JUMPDEST SWAP2 POP DUP2 SWAP1 POP SWAP3 SWAP2 POP POP JUMP JUMPDEST PUSH1 0x0 DUP2 MLOAD SWAP1 POP PUSH2 0x1BD8 DUP2 PUSH2 0x1578 JUMP JUMPDEST SWAP3 SWAP2 POP POP JUMP JUMPDEST PUSH1 0x0 PUSH1 0x20 DUP3 DUP5 SUB SLT ISZERO PUSH2 0x1BF4 JUMPI PUSH2 0x1BF3 PUSH2 0x1569 JUMP JUMPDEST JUMPDEST PUSH1 0x0 PUSH2 0x1C02 DUP5 DUP3 DUP6 ADD PUSH2 0x1BC9 JUMP JUMPDEST SWAP2 POP POP SWAP3 SWAP2 POP POP JUMP JUMPDEST PUSH1 0x0 PUSH1 0x40 DUP3 ADD SWAP1 POP PUSH2 0x1C20 PUSH1 0x0 DUP4 ADD DUP6 PUSH2 0x1932 JUMP JUMPDEST PUSH2 0x1C2D PUSH1 0x20 DUP4 ADD DUP5 PUSH2 0x15DB JUMP JUMPDEST SWAP4 SWAP3 POP POP POP JUMP JUMPDEST PUSH1 0x0 DUP2 MLOAD SWAP1 POP PUSH2 0x1C43 DUP2 PUSH2 0x173A JUMP JUMPDEST SWAP3 SWAP2 POP POP JUMP JUMPDEST PUSH1 0x0 PUSH1 0x20 DUP3 DUP5 SUB SLT ISZERO PUSH2 0x1C5F JUMPI PUSH2 0x1C5E PUSH2 0x1569 JUMP JUMPDEST JUMPDEST PUSH1 0x0 PUSH2 0x1C6D DUP5 DUP3 DUP6 ADD PUSH2 0x1C34 JUMP JUMPDEST SWAP2 POP POP SWAP3 SWAP2 POP POP JUMP JUMPDEST PUSH1 0x0 DUP2 MLOAD SWAP1 POP SWAP2 SWAP1 POP JUMP JUMPDEST PUSH1 0x0 DUP3 DUP3 MSTORE PUSH1 0x20 DUP3 ADD SWAP1 POP SWAP3 SWAP2 POP POP JUMP JUMPDEST PUSH1 0x0 PUSH1 0x1F NOT PUSH1 0x1F DUP4 ADD AND SWAP1 POP SWAP2 SWAP1 POP JUMP JUMPDEST PUSH1 0x0 PUSH2 0x1CAE DUP3 PUSH2 0x1C76 JUMP JUMPDEST PUSH2 0x1CB8 DUP2 DUP6 PUSH2 0x1C81 JUMP JUMPDEST SWAP4 POP PUSH2 0x1CC8 DUP2 DUP6 PUSH1 0x20 DUP7 ADD PUSH2 0x1B57 JUMP JUMPDEST PUSH2 0x1CD1 DUP2 PUSH2 0x1C92 JUMP JUMPDEST DUP5 ADD SWAP2 POP POP SWAP3 SWAP2 POP POP JUMP JUMPDEST PUSH1 0x0 PUSH1 0x40 DUP3 ADD SWAP1 POP DUP2 DUP2 SUB PUSH1 0x0 DUP4 ADD MSTORE PUSH2 0x1CF6 DUP2 DUP6 PUSH2 0x1CA3 JUMP JUMPDEST SWAP1 POP PUSH2 0x1D05 PUSH1 0x20 DUP4 ADD DUP5 PUSH2 0x15DB JUMP JUMPDEST SWAP4 SWAP3 POP POP POP JUMP INVALID LOG2 PUSH5 0x6970667358 0x22 SLT KECCAK256 ADD 0xE4 0xE8 DUP2 SUB CREATE 0xC1 PREVRANDAO 0x2D DUP5 JUMPI GASLIMIT 0xEC CALLDATALOAD 0xA9 DUP15 0xDD 0xAE 0xB3 MSTORE SDIV 0xB1 PUSH30 0x4C6A66F8769D40A79C64736F6C6343000812003300000000000000000000 "
		},
		"gasEstimates": {
			"creation": {
				"codeDepositCost": "1498000",
				"executionCost": "1568",
				"totalCost": "1499568"
			},
			"external": {
				"assets(bytes32)": "infinite",
				"escrowAsset(bytes32)": "infinite",
				"escrowPremium(bytes32)": "infinite",
				"premiums(bytes32)": "infinite",
				"redeemAsset(bytes32,bytes32)": "infinite",
				"redeemPremium(bytes32)": "infinite",
				"refundAsset(bytes32)": "infinite",
				"refundPremium(bytes32)": "infinite",
				"setup(uint256,uint256,address,address,address,bytes32,uint256,bool,uint256)": "infinite",
				"swaps(bytes32)": "infinite"
			}
		},
		"methodIdentifiers": {
			"assets(bytes32)": "9fda5b66",
			"escrowAsset(bytes32)": "e8d8c29b",
			"escrowPremium(bytes32)": "aeaf7cc7",
			"premiums(bytes32)": "78a3113e",
			"redeemAsset(bytes32,bytes32)": "d72a0a53",
			"redeemPremium(bytes32)": "b55587a9",
			"refundAsset(bytes32)": "5385c914",
			"refundPremium(bytes32)": "8f1c087c",
			"setup(uint256,uint256,address,address,address,bytes32,uint256,bool,uint256)": "d133adb1",
			"swaps(bytes32)": "eb84e7f2"
		}
	},
	"abi": [
		{
			"anonymous": false,
			"inputs": [
				{
					"indexed": false,
					"internalType": "address",
					"name": "messageSender",
					"type": "address"
				},
				{
					"indexed": false,
					"internalType": "uint256",
					"name": "amount",
					"type": "uint256"
				},
				{
					"indexed": false,
					"internalType": "address",
					"name": "transferFrom",
					"type": "address"
				},
				{
					"indexed": false,
					"internalType": "address",
					"name": "transferTo",
					"type": "address"
				},
				{
					"indexed": false,
					"internalType": "uint256",
					"name": "currentPremium",
					"type": "uint256"
				},
				{
					"indexed": false,
					"internalType": "uint256",
					"name": "currentAsset",
					"type": "uint256"
				}
			],
			"name": "AssetEscrowed",
			"type": "event"
		},
		{
			"anonymous": false,
			"inputs": [
				{
					"indexed": false,
					"internalType": "address",
					"name": "messageSender",
					"type": "address"
				},
				{
					"indexed": false,
					"internalType": "uint256",
					"name": "amount",
					"type": "uint256"
				},
				{
					"indexed": false,
					"internalType": "address",
					"name": "transferFrom",
					"type": "address"
				},
				{
					"indexed": false,
					"internalType": "address",
					"name": "transferTo",
					"type": "address"
				},
				{
					"indexed": false,
					"internalType": "uint256",
					"name": "currentPremium",
					"type": "uint256"
				},
				{
					"indexed": false,
					"internalType": "uint256",
					"name": "currentAsset",
					"type": "uint256"
				}
			],
			"name": "AssetRedeemed",
			"type": "event"
		},
		{
			"anonymous": false,
			"inputs": [
				{
					"indexed": false,
					"internalType": "address",
					"name": "messageSender",
					"type": "address"
				},
				{
					"indexed": false,
					"internalType": "uint256",
					"name": "amount",
					"type": "uint256"
				},
				{
					"indexed": false,
					"internalType": "address",
					"name": "transferFrom",
					"type": "address"
				},
				{
					"indexed": false,
					"internalType": "address",
					"name": "transferTo",
					"type": "address"
				},
				{
					"indexed": false,
					"internalType": "uint256",
					"name": "currentPremium",
					"type": "uint256"
				},
				{
					"indexed": false,
					"internalType": "uint256",
					"name": "currentAsset",
					"type": "uint256"
				}
			],
			"name": "AssetRefunded",
			"type": "event"
		},
		{
			"anonymous": false,
			"inputs": [
				{
					"indexed": false,
					"internalType": "address",
					"name": "messageSender",
					"type": "address"
				},
				{
					"indexed": false,
					"internalType": "uint256",
					"name": "amount",
					"type": "uint256"
				},
				{
					"indexed": false,
					"internalType": "address",
					"name": "transferFrom",
					"type": "address"
				},
				{
					"indexed": false,
					"internalType": "address",
					"name": "transferTo",
					"type": "address"
				},
				{
					"indexed": false,
					"internalType": "uint256",
					"name": "currentPremium",
					"type": "uint256"
				},
				{
					"indexed": false,
					"internalType": "uint256",
					"name": "currentAsset",
					"type": "uint256"
				}
			],
			"name": "PremiumEscrowed",
			"type": "event"
		},
		{
			"anonymous": false,
			"inputs": [
				{
					"indexed": false,
					"internalType": "address",
					"name": "messageSender",
					"type": "address"
				},
				{
					"indexed": false,
					"internalType": "uint256",
					"name": "amount",
					"type": "uint256"
				},
				{
					"indexed": false,
					"internalType": "address",
					"name": "transferFrom",
					"type": "address"
				},
				{
					"indexed": false,
					"internalType": "address",
					"name": "transferTo",
					"type": "address"
				},
				{
					"indexed": false,
					"internalType": "uint256",
					"name": "currentPremium",
					"type": "uint256"
				},
				{
					"indexed": false,
					"internalType": "uint256",
					"name": "currentAsset",
					"type": "uint256"
				}
			],
			"name": "PremiumRedeemed",
			"type": "event"
		},
		{
			"anonymous": false,
			"inputs": [
				{
					"indexed": false,
					"internalType": "address",
					"name": "messageSender",
					"type": "address"
				},
				{
					"indexed": false,
					"internalType": "uint256",
					"name": "amount",
					"type": "uint256"
				},
				{
					"indexed": false,
					"internalType": "address",
					"name": "transferFrom",
					"type": "address"
				},
				{
					"indexed": false,
					"internalType": "address",
					"name": "transferTo",
					"type": "address"
				},
				{
					"indexed": false,
					"internalType": "uint256",
					"name": "currentPremium",
					"type": "uint256"
				},
				{
					"indexed": false,
					"internalType": "uint256",
					"name": "currentAsset",
					"type": "uint256"
				}
			],
			"name": "PremiumRefunded",
			"type": "event"
		},
		{
			"anonymous": false,
			"inputs": [
				{
					"indexed": false,
					"internalType": "address payable",
					"name": "assetEscrower",
					"type": "address"
				},
				{
					"indexed": false,
					"internalType": "address payable",
					"name": "premiumEscrower",
					"type": "address"
				},
				{
					"indexed": false,
					"internalType": "uint256",
					"name": "expectedPremium",
					"type": "uint256"
				},
				{
					"indexed": false,
					"internalType": "uint256",
					"name": "expectedAsset",
					"type": "uint256"
				},
				{
					"indexed": false,
					"internalType": "uint256",
					"name": "startTime",
					"type": "uint256"
				},
				{
					"indexed": false,
					"internalType": "uint256",
					"name": "premiumDeadline",
					"type": "uint256"
				},
				{
					"indexed": false,
					"internalType": "uint256",
					"name": "assetDeadline",
					"type": "uint256"
				},
				{
					"indexed": false,
					"internalType": "uint256",
					"name": "assetTimeout",
					"type": "uint256"
				}
			],
			"name": "SetUp",
			"type": "event"
		},
		{
			"inputs": [
				{
					"internalType": "bytes32",
					"name": "",
					"type": "bytes32"
				}
			],
			"name": "assets",
			"outputs": [
				{
					"internalType": "uint256",
					"name": "expected",
					"type": "uint256"
				},
				{
					"internalType": "uint256",
					"name": "current",
					"type": "uint256"
				},
				{
					"internalType": "uint256",
					"name": "deadline",
					"type": "uint256"
				},
				{
					"internalType": "uint256",
					"name": "timeout",
					"type": "uint256"
				}
			],
			"stateMutability": "view",
			"type": "function"
		},
		{
			"inputs": [
				{
					"internalType": "bytes32",
					"name": "hashLock",
					"type": "bytes32"
				}
			],
			"name": "escrowAsset",
			"outputs": [],
			"stateMutability": "payable",
			"type": "function"
		},
		{
			"inputs": [
				{
					"internalType": "bytes32",
					"name": "hashLock",
					"type": "bytes32"
				}
			],
			"name": "escrowPremium",
			"outputs": [],
			"stateMutability": "payable",
			"type": "function"
		},
		{
			"inputs": [
				{
					"internalType": "bytes32",
					"name": "",
					"type": "bytes32"
				}
			],
			"name": "premiums",
			"outputs": [
				{
					"internalType": "uint256",
					"name": "expected",
					"type": "uint256"
				},
				{
					"internalType": "uint256",
					"name": "current",
					"type": "uint256"
				},
				{
					"internalType": "uint256",
					"name": "deadline",
					"type": "uint256"
				}
			],
			"stateMutability": "view",
			"type": "function"
		},
		{
			"inputs": [
				{
					"internalType": "bytes32",
					"name": "preimage",
					"type": "bytes32"
				},
				{
					"internalType": "bytes32",
					"name": "hashLock",
					"type": "bytes32"
				}
			],
			"name": "redeemAsset",
			"outputs": [],
			"stateMutability": "nonpayable",
			"type": "function"
		},
		{
			"inputs": [
				{
					"internalType": "bytes32",
					"name": "hashLock",
					"type": "bytes32"
				}
			],
			"name": "redeemPremium",
			"outputs": [],
			"stateMutability": "nonpayable",
			"type": "function"
		},
		{
			"inputs": [
				{
					"internalType": "bytes32",
					"name": "hashLock",
					"type": "bytes32"
				}
			],
			"name": "refundAsset",
			"outputs": [],
			"stateMutability": "nonpayable",
			"type": "function"
		},
		{
			"inputs": [
				{
					"internalType": "bytes32",
					"name": "hashLock",
					"type": "bytes32"
				}
			],
			"name": "refundPremium",
			"outputs": [],
			"stateMutability": "nonpayable",
			"type": "function"
		},
		{
			"inputs": [
				{
					"internalType": "uint256",
					"name": "expectedAssetEscrow",
					"type": "uint256"
				},
				{
					"internalType": "uint256",
					"name": "expectedPremiumEscrow",
					"type": "uint256"
				},
				{
					"internalType": "address payable",
					"name": "assetEscrower",
					"type": "address"
				},
				{
					"internalType": "address payable",
					"name": "premiumEscrower",
					"type": "address"
				},
				{
					"internalType": "address",
					"name": "assetAddress",
					"type": "address"
				},
				{
					"internalType": "bytes32",
					"name": "hashLock",
					"type": "bytes32"
				},
				{
					"internalType": "uint256",
					"name": "startTime",
					"type": "uint256"
				},
				{
					"internalType": "bool",
					"name": "firstAssetEscrow",
					"type": "bool"
				},
				{
					"internalType": "uint256",
					"name": "delta",
					"type": "uint256"
				}
			],
			"name": "setup",
			"outputs": [],
			"stateMutability": "payable",
			"type": "function"
		},
		{
			"inputs": [
				{
					"internalType": "bytes32",
					"name": "",
					"type": "bytes32"
				}
			],
			"name": "swaps",
			"outputs": [
				{
					"internalType": "address payable",
					"name": "assetEscrower",
					"type": "address"
				},
				{
					"internalType": "address payable",
					"name": "premiumEscrower",
					"type": "address"
				},
				{
					"internalType": "bytes32",
					"name": "hashLock",
					"type": "bytes32"
				},
				{
					"internalType": "address",
					"name": "assetAddress",
					"type": "address"
				}
			],
			"stateMutability": "view",
			"type": "function"
		}
	]
}